:020000040000FA
:100000000C9462000C948A000C948A000C948A0070
:100010000C948A000C948A000C948A000C948A0038
:100020000C948A000C948A000C948A000C948A0028
:100030000C948A000C948A000C948A000C948A0018
:100040000C9450030C948A000C94C0030C949A03F3
:100050000C948A000C948A000C948A000C948A00F8
:100060000C948A000C948A000000000024002700F1
:100070002A000000000023002600290000000000E4
:10008000250028002B0004040404040404040202D4
:100090000202020203030303030301020408102007
:1000A0004080010204081020010204081020000012
:1000B0000008000201000003040700000000000027
:1000C00000006D0511241FBECFEFD8E0DEBFCDBF0D
:1000D00011E0A0E0B1E0E8E8FBE002C005900D927D
:1000E000AE38B107D9F722E0AEE8B1E001C01D9209
:1000F000A034B207E1F710E0C2E6D0E004C02197D7
:10010000FE010E94BC05C136D107C9F70E94F20367
:100110000C94C2050C940000CF92DF92EF92FF92F4
:100120006B017C01E091B301F091B40182E0808326
:10013000C11481EED806E104F104A1F060E079E099
:100140008DE390E0A70196010E949A0521503109A4
:10015000410951095695479537952795211580E115
:100160003807A8F0E091B301F091B401108260E883
:1001700074E88EE190E0A70196010E949A05215053
:100180003109410951095695479537952795E091D1
:10019000AF01F091B0013083E091B101F091B20173
:1001A00020831092BB01E091B701F091B80186E085
:1001B0008083E091B501F091B601808180618083F8
:1001C000E091B501F091B601808188608083E09173
:1001D000B501F091B601808180688083E091B5011E
:1001E000F091B60180818F7D8083FF90EF90DF904A
:1001F000CF900895833081F028F4813099F08230D7
:10020000A9F008958730A9F08830C9F08430B1F49E
:10021000809180008F7D03C0809180008F778093D4
:100220008000089584B58F7784BD089584B58F7D4F
:10023000FBCF8091B0008F778093B00008958091BC
:10024000B0008F7DF9CF1F93CF93DF93EBEBF0E0FE
:100250009491E7EAF0E0D491E3E9F0E0C491CC2393
:10026000B9F0182F992319F0892F0E94FA00EC2F6A
:10027000F0E0EE0FFF1FE458FF4FA591B4918FB748
:10028000F894EC91111108C0D095DE23DC938FBF58
:10029000DF91CF911F910895DE2BF8CFCF93DF939D
:1002A000E0EBF0E08491ECE9F0E0D491E8E8F0E0F4
:1002B000C491CC23A1F081110E94FA00EC2FF0E050
:1002C000EE0FFF1FEE58FF4FA591B491EC91ED2377
:1002D00081E090E009F480E0DF91CF91089580E023
:1002E00090E0FACF3FB7F89480919F019091A001E0
:1002F000A091A101B091A20126B5A89B05C02F3FF6
:1003000019F00196A11DB11D3FBFBA2FA92F982F3B
:100310008827BC01CD01620F711D811D911D42E036
:10032000660F771F881F991F4A95D1F708958F92FE
:100330009F92AF92BF92CF92DF92EF92FF926B01AA
:100340007C010E9472014B015C01C114D104E104E3
:10035000F104B9F00E947201681979098A099B09B0
:10036000683E73408105910580F321E0C21AD108EF
:10037000E108F10888EE880E83E0981EA11CB11CEC
:10038000E4CFFF90EF90DF90CF90BF90AF909F9021
:100390008F900895AF92BF92CF92DF92EF92FF922B
:1003A0000F931F93CF93DF936C017B018B01040F9D
:1003B000151FEB015E01AE18BF08C017D10759F039
:1003C0006991D601ED91FC910190F081E02DC6017B
:1003D0000995892B79F7C501DF91CF911F910F9175
:1003E000FF90EF90DF90CF90BF90AF900895FC0109
:1003F000538D448D252F30E0842F90E0821B930B8A
:10040000541710F0CF96089501970895FC01918D2F
:10041000828D981761F0A28DAE0FBF2FB11D5D9632
:100420008C91928D9F5F9F73928F90E008958FEFD4
:100430009FEF0895FC01918D828D981731F0828D88
:10044000E80FF11D858D90E008958FEF9FEF0895DF
:10045000FC01918D228D892F90E0805C9F4F821B43
:1004600091098F739927089583EA91E00E942802E9
:1004700021E0892B09F420E0822F089580E090E0AC
:10048000892B29F00E94340281110C9400000895F8
:10049000FC01A48DA80FB92FB11DA35ABF4F2C91F9
:1004A000848D90E001968F739927848FA689B789F0
:1004B0002C93A089B1898C91837080648C93938DE7
:1004C000848D981306C00288F389E02D80818F7D8A
:1004D00080830895EF92FF920F931F93CF93DF9342
:1004E000EC0181E0888F9B8D8C8D98131AC0E88970
:1004F000F989808185FF15C09FB7F894EE89FF893F
:100500006083E889F98980818370806480839FBFDC
:1005100081E090E0DF91CF911F910F91FF90EF90DC
:100520000895F62E0B8D10E00F5F1F4F0F731127EC
:10053000E02E8C8D8E110CC00FB607FCFACFE88927
:10054000F989808185FFF5CFCE010E944802F1CF65
:10055000EB8DEC0FFD2FF11DE35AFF4FF0829FB79B
:10056000F8940B8FEA89FB8980818062CFCFCF938B
:10057000DF93EC01888D8823B9F0AA89BB89E889CB
:10058000F9898C9185FD03C0808186FD0DC00FB671
:1005900007FCF7CF8C9185FFF2CF808185FFEDCFEF
:1005A000CE010E944802E9CFDF91CF910895CF920A
:1005B000DF92EF92FF920F931F93CF93DF938C0103
:1005C000D0E0C0E06B01770FEE08FF0881E00E94E9
:1005D0002301C701B6010E94970180E00E94230118
:1005E000C701B6010E94970121960C171D0771F7EC
:1005F000DF91CF911F910F91FF90EF90DF90CF90FF
:100600000895CF92DF92EF92FF926B017C01C0922E
:100610000001D0920101E0920201F092030183EA0D
:1006200091E00E94B702E3EAF1E0A289B3898C91DC
:100630008F7E8C93A289B3898C91877F8C93A289BA
:10064000B3898C918F778C93A289B3898C918F7D9C
:100650008C93828D818FC701B601FF90EF90DF9060
:10066000CF900C948C00CF93DF93FC01019000207D
:10067000E9F73197AF01481B590BBC0183EA91E0C0
:100680000E94CA01EC0142E050E067E171E083EAB8
:1006900091E00E94CA018C0F9D1FDF91CF910895B8
:1006A0001F920F920FB60F9211242F933F938F93A7
:1006B0009F93AF93BF9380919B0190919C01A091D8
:1006C0009D01B0919E0130919A0123E0230F2D37B7
:1006D00058F50196A11DB11D20939A0180939B01AD
:1006E00090939C01A0939D01B0939E0180919F01E6
:1006F0009091A001A091A101B091A2010196A11D2C
:10070000B11D80939F019093A001A093A101B0938C
:10071000A201BF91AF919F918F913F912F910F9027
:100720000FBE0F901F90189526E8230F0296A11D6B
:10073000B11DD2CF1F920F920FB60F9211242F939B
:100740003F934F935F936F937F938F939F93AF9359
:10075000BF93EF93FF9383EA91E00E944802FF91D9
:10076000EF91BF91AF919F918F917F916F915F9129
:100770004F913F912F910F900FBE0F901F901895A2
:100780001F920F920FB60F9211242F938F939F9366
:10079000EF93FF93E091B301F091B4018081E09178
:1007A000B901F091BA0182FD1BC090818091BC011A
:1007B0008F5F8F732091BD01821741F0E091BC01E2
:1007C000F0E0ED55FE4F958F8093BC01FF91EF91C6
:1007D0009F918F912F910F900FBE0F901F901895A2
:1007E0008081F4CF789484B5826084BD84B58160C3
:1007F00084BD85B5826085BD85B5816085BD8091EC
:100800006E00816080936E00109281008091810063
:10081000826080938100809181008160809381005B
:10082000809180008160809380008091B10084601D
:100830008093B1008091B00081608093B00080917E
:100840007A00846080937A0080917A00826080933D
:100850007A0080917A00816080937A0080917A009A
:10086000806880937A001092C100E7EAF0E024915A
:10087000E3E9F0E08491882399F090E0880F991FD4
:10088000FC01E859FF4FA591B491FC01E458FF4FDA
:10089000859194918FB7F894EC91E22BEC938FBFF4
:1008A000ECE9F0E02491E8E8F0E084918823C1F0DD
:1008B00090E0880F991FFC01E859FF4FC591D49132
:1008C000FC01E458FF4FA591B4919FB7F89438818B
:1008D000822F809583238883EC91E22BEC939FBF3A
:1008E00060910001709101018091020190910301DA
:1008F0000E948C008AE191E00E94330311E0C0E085
:10090000D0E00E944E0121E0009709F420E02093FE
:100910009901892BB9F480910401882399F02FB7AC
:10092000F89480919B0190919C01A0919D01B091C0
:100930009E012FBF8093950190939601A0939701FC
:10094000B093980180919901811138C02FB7F89424
:1009500080919B0190919C01A0919D01B0919E017D
:100960002FBF409195015091960160919701709130
:100970009801841B950BA60BB70B893B9B40A105E7
:10098000B105E0F080919401812780939401882340
:1009900009F48AC085E391E00E94330364E670E0C5
:1009A00085E090E00E94D7020E944E01892BE1F37E
:1009B0006CE271E080E090E00E94970180919401E8
:1009C000882309F462C080919901811120C080912F
:1009D00004018823E1F080919201909193010196A6
:1009E00090939301809392012FB7F89480919B018B
:1009F00090919C01A0919D01B0919E012FBF809389
:100A00008E0190938F01A0939001B09391018091FA
:100A100092019091930118161906BCF52FB7F8941E
:100A200080919B0190919C01A0919D01B0919E01AC
:100A30002FBF40918E0150918F0160919001709174
:100A40009101841B950BA60BB70B893E9340A10522
:100A5000B105D8F080919201909193018130910578
:100A600059F560E875E280E090E00E9401036CE2D5
:100A700071E081E090E00E94D70288E591E00E9459
:100A80003303109293011092920180919901809307
:100A90000401209709F435CF0E943402882309F419
:100AA00030CF0E9400002DCF87E491E00E943303F5
:100AB00080E00E94230178CF029719F760E072EC82
:100AC00081E090E00E9401036CE271E082E090E03E
:100AD0000E94D70282E791E0D2CFE3EAF1E01382ED
:100AE000128288EE93E0A0E0B0E084839583A68331
:100AF000B78389E091E09183808385EC90E09587CE
:100B0000848784EC90E09787868780EC90E0918BD7
:100B1000808B81EC90E0938B828B82EC90E0958BC4
:100B2000848B86EC90E0978B868B118E128E138EC1
:100B3000148E0895A1E21A2EAA1BBB1BFD010DC045
:100B4000AA1FBB1FEE1FFF1FA217B307E407F5077D
:100B500020F0A21BB30BE40BF50B661F771F881F59
:100B6000991F1A9469F760957095809590959B01EF
:100B7000AC01BD01CF010895EE0FFF1F0590F49168
:100B8000E02D0994F894FFCF8025000001000000BB
:100B9000006A02CA01F701B702280206021A020D12
:100BA0000A0053797374656D2072756E6E696E6795
:100BB00020617420393630302062707300456E74C5
:100BC000657220434F4E464947206D6F6465004271
:100BD00061636B20746F2052554E206D6F64650009
:100BE0004261756420726174652073657420746F4E
:100BF0002039363030206270730042617564207293
:100C00006174652073657420746F20313135323022
:060C100030206270730049
:107E0000112484B714BE81FFF0D085E080938100F7
:107E100082E08093C00088E18093C10086E0809377
:107E2000C20080E18093C4008EE0C9D0259A86E02C
:107E300020E33CEF91E0309385002093840096BBD3
:107E4000B09BFECF1D9AA8958150A9F7CC24DD24C4
:107E500088248394B5E0AB2EA1E19A2EF3E0BF2EE7
:107E6000A2D0813461F49FD0082FAFD0023811F036
:107E7000013811F484E001C083E08DD089C08234E0
:107E800011F484E103C0853419F485E0A6D080C0E4
:107E9000853579F488D0E82EFF2485D0082F10E0AE
:107EA000102F00270E291F29000F111F8ED06801E7
:107EB0006FC0863521F484E090D080E0DECF843638
:107EC00009F040C070D06FD0082F6DD080E0C81688
:107ED00080E7D80618F4F601B7BEE895C0E0D1E017
:107EE00062D089930C17E1F7F0E0CF16F0E7DF06D8
:107EF00018F0F601B7BEE89568D007B600FCFDCFD4
:107F0000A601A0E0B1E02C9130E011968C91119780
:107F100090E0982F8827822B932B1296FA010C0160
:107F200087BEE89511244E5F5F4FF1E0A038BF0790
:107F300051F7F601A7BEE89507B600FCFDCF97BE46
:107F4000E89526C08437B1F42ED02DD0F82E2BD052
:107F50003CD0F601EF2C8F010F5F1F4F84911BD097
:107F6000EA94F801C1F70894C11CD11CFA94CF0C13
:107F7000D11C0EC0853739F428D08EE10CD085E9AC
:107F80000AD08FE07ACF813511F488E018D01DD067
:107F900080E101D065CF982F8091C00085FFFCCF94
:107FA0009093C60008958091C00087FFFCCF809118
:107FB000C00084FD01C0A8958091C6000895E0E648
:107FC000F0E098E1908380830895EDDF803219F02E
:107FD00088E0F5DFFFCF84E1DECF1F93182FE3DFCA
:107FE0001150E9F7F2DF1F91089580E0E8DFEE27F6
:047FF000FF270994CA
:027FFE00040479
:00000001FF
